:100000000C9434000C94DE020C94DE02189500006F
:10001000189500000C9483021895000018950000B4
:10002000189500001895000018950000189500001C
:10003000189500000C941B031895000018950000FB
:1000400018950000189500001895000018950000FC
:1000500018950000189500001895000018950000EC
:1000600018950000189500008FEF8DBFC0E8E8E9F3
:100070004E2E88E08EBFD8E0F7E05F2EA89584B7BB
:10008000082E877F84BF88E1992780936000909332
:100090006000EEEFF7E0A0E0B1E088278D933197A4
:1000A000E9F787E68093C40080E08093C50088E18B
:1000B0008093C1006624209A289A209A289A71E099
:1000C0007DBD0E94920381E090E00E94E1030E94C6
:1000D0007E04A0E0B1E09C933C9A449A3D98579AE4
:1000E0005F9A529853988091690083608093690069
:1000F000809169008C608093690055985498709144
:100100006800746070936800E89AE99A70E37093ED
:100110006D0080E08093800083E0809381008FEF0A
:100120008093850086E080938400709176057F7BC4
:1001300070937605709176057F777093760584E6E7
:1001400080937D0584E680937E057894E8EEF8E15F
:100150000E9478030E947F035F98E1E0F0E00E9434
:1001600089035F9AE1E0F0E00E9489030E94630343
:10017000ACE7B5E08C930E94CB03ABE7B5E08C9382
:1001800000917C05003211F00C94DB007091760533
:100190007062709376055F98E4EFF8E10E94BB030C
:1001A0008FEF0E94AB038FEF0E94AB038FEF0E9493
:1001B000AB030C94F40000917C050B3111F00C940E
:1001C000F400709176057F7D709376055F9AECEF71
:1001D000F8E10E94BB038FEF0E94AB038FEF0E94F8
:1001E000AB038FEF0E94AB0300917B05003211F04F
:1001F0000C94FD005F9A0E9401010C94B600F894E3
:10020000FFCF0E94CB03ABE7B5E08C9300917D0557
:10021000043681E009F080E08F9300917E0504367A
:1002200081E009F080E09F91892B882311F40C94E0
:1002300075010E94CB03ABE7B5E08C938CE4482FAB
:1002400000917B05041711F00C944101E8E0F9E1FD
:100250000E9478030E947F030E94CF03ADE7B5E0C0
:100260008C93EEE1F9E10E947803EDE7F5E0A0E878
:10027000B7E00E942E0C0E9470030E947F030C9432
:100280005C0180E5482F00917B05041711F00C9468
:100290005C010E94CF03AEE7B5E08C93E6E2F9E1A2
:1002A0000E947803EEE7F5E0A0E8B7E00E942E0C8C
:1002B0000E9470030E947F0300917D05043681E057
:1002C00008F080E08F9300917E05043681E008F00D
:1002D00080E09F918923882311F40C941901EEE2A8
:1002E000F9E10E9478030E947F0383E5482F009183
:1002F0007B05041711F00C940C0200917D05043667
:1003000081E009F080E08F9300917E05043681E062
:1003100009F080E09F91892B882311F40C949201BD
:100320000C940C0200917D05003081E009F080E022
:100330008F9300917E05003081E009F080E09F916D
:100340008923882311F40C94A7010C940C0280E0FB
:1003500090E0A9E7B5E08D939C938FEF80938500A3
:1003600086E08093840070916F00716070936F00DD
:100370000E94CB03ABE7B5E08C93A9E7B5E00D9104
:100380001C91083E53E0150711F00C94CB0180E856
:1003900089B90C94F301003D57E0150711F00C9456
:1003A000D50180E889B90C94F301083B5BE015079F
:1003B00011F00C94DF0180E889B90C94F301003A44
:1003C0005FE0150711F00C94E90180E889B90C94FD
:1003D000F301083A51E6150711F00C94F30183E498
:1003E000ABE7B5E08C9383E4482F00917B050417BD
:1003F00011F00C94B80170916F007E7F70936F00C4
:1004000080E090E0A9E7B5E08D939C9384E680932B
:100410007D0584E680937E0500917B050B3181E0AC
:1004200009F080E08F9300917C050B3181E009F0A9
:1004300080E09F91892B882311F40C940101E2E460
:10044000F9E10E9478030E947F0384E680937D0592
:1004500084E680937E05089581E00E94EB0B0E9464
:100460007E04A0E0B1E09C9300910001003011F007
:100470000C94770281E00E94D004A881B9819C93FA
:10048000A881B9810C91003011F40C944E02709146
:1004900076057068709376050C9475025F98A0E8F5
:1004A000B7E0E6E5F9E10E94F10B82E0A0E8B7E0F1
:1004B0000E94800582E00E940C0908F40DC0FA93A6
:1004C000EA930E94730BE2E6F9E10E94750B0E9429
:1004D000730B0E946D0B229682E00E94A40570911E
:1004E00076057F77709376055F9A0C947D025F980E
:1004F0007091760570687093760581E0481A80E007
:10050000580A229608950F921F922F923F924F926F
:100510005F927F92AF92BF920F931F932F933F935F
:100520004F935F936F937F938F939F93AF93BF93FB
:10053000CF93DF93EF93FF938FB78F934D9B0C94E3
:10054000B002A9E7B5E00D911C91083853E11507F9
:1005500010F00C94B002709176057061709376057E
:100560004C9B0C94C202A9E7B5E00D911C91083890
:1005700053E1150710F00C94C20270917605786073
:10058000709376058F918FBFFF91EF91DF91CF919F
:10059000BF91AF919F918F917F916F915F914F919B
:1005A0003F912F911F910F91BF90AF907F905F90DF
:1005B0004F903F902F901F900F9018950F921F9281
:1005C0002F923F924F925F927F92AF92BF920F9382
:1005D0001F932F933F934F935F936F937F938F93CB
:1005E0009F93AF93BF93CF93DF93EF93FF938FB717
:1005F0008F934A9B0C94FC024B9B0C94FF028F91AF
:100600008FBFFF91EF91DF91CF91BF91AF919F91FC
:100610008F917F916F915F914F913F912F911F919A
:100620000F91BF90AF907F905F904F903F902F9031
:100630001F900F9018950F921F922F923F924F92FA
:100640005F927F92AF92BF920F931F932F933F932E
:100650004F935F936F937F938F939F93AF93BF93CA
:10066000CF93DF93EF93FF938FB78F938FEF8093A9
:10067000850086E080938400A9E7B5E00E945C03D2
:100680008F918FBFFF91EF91DF91CF91BF91AF918C
:100690009F918F917F916F915F914F913F912F919A
:1006A0001F910F91BF90AF907F905F904F903F90C0
:1006B0002F901F900F901895ED91FC91EF5FFF4FD9
:1006C000FC93EE93089588270090C00007FE0895DC
:1006D00000C08091C00087FFFCCF8091C6000895C4
:1006E000A0E8B7E08D91882311F00CD0FBCF0895DE
:1006F0000E94F70B802D11F005D0FACF08958DE000
:1007000001D08AE00090C00005FEFCCF8093C600B7
:10071000089588EE93E055D03197D9F70895319731
:10072000F1F70895259A24982C9A239A229A8CE519
:100730008CBD089508950895689462F80895E8942A
:1007400062F808958F939F938BEC90E00197F1F7F7
:100750009F918F91089580952AE090E0089410F47D
:10076000449802C0449A0000EDDFECDF969587952F
:100770002A95A9F708950E94F70B802D11F0EBDF61
:10078000FACF08958F939F938BEC90E00197F1F748
:100790009F918F910895359B05C088270895359BBB
:1007A00001C0FDCF29E03599FECFECDFEBDFEADFBA
:1007B0008894359908942A9519F087959795F6CFDE
:1007C0000895EF93FF93EE27E82BE92B31F0E0EA51
:1007D000FFE03197F1F70197D1F7FF91EF9108957D
:1007E000289846D0032D44D0062F42D0052F40D064
:1007F000042F3ED01F932F93112725E0E89435D086
:100800000F3F21F411502040D1F768942F911F9190
:1008100000230895289A1AE028D01A95E9F7289815
:1008200000E426D024D023D022D021D005E920D046
:1008300014E6E0DF013021F01A95D9F791EE7BC084
:1008400075C01AE0289801E413D011D010D00FD051
:100850000ED0D0DF49F06AD082E390E00E94E1033D
:100860001A9581F792EE67C061C00FEF01C00027B3
:100870000EBD00904D0007FEFCCF0EB50895442735
:100880005D916D913D90550F661F331C089545D0C5
:10089000F6DF01E5A5DF11F093EE4DC0ABDF0E3FB3
:1008A00011F095EE48C092E08827DFDF01930197B1
:1008B000E1F7DBDFDADF3AC030D0E1DF08E590DFD7
:1008C00011F094EE38C0D1DF0EEFD2DF92E088272E
:1008D0000191CEDF0197E1F7C8DFC7DFC6DF0F71F7
:1008E0000093030111272FEF31D0BFDF002329F43C
:1008F00011502040C9F796EE1EC018C00E94920306
:100900000CD088DF08F408959CCF07D083CF05D0A2
:1009100081E00EC002D098EE13C09927889490937E
:10092000000190930201909301010895289A9DDFA0
:1009300099278894089504D0289A97DF08940895F9
:1009400090930001009302010894089595E39A950D
:10095000F1F70895E8E0F1E0ACE6B4E0992791936F
:100960001197E9F70895E894843059F0863049F0FA
:100970008E3039F068948B3021F08C3011F093E197
:100980006BC200900A0100F800920A018894089551
:10099000E8E5F3E0EAD145555A4A09F408955CC206
:1009A0008A93D8DF8ED2C0F091E1F2DFA8F088817F
:1009B0008823F9F0E8E1F3E08A9511F07096FCCF16
:1009C00080818F7721F434968081CDDF38F488815F
:1009D000823078F093E140C221963EC280930901B3
:1009E0003496A5E5B1E0DBD16CD288F392E1D0DF9B
:1009F00098F38991E5E6F1E0B8D14050524094E196
:100A0000F9F4A8E6B1E0AED1A5E5B1E081D177D1A6
:100A1000ABE0B1E091D1A0E7B1E0A2D140505040AD
:100A200019F4AEE7B1E07ED1E0E1F1E08FD1809141
:100A30006A0180930F0196E1882311F0833008F05A
:100A40000BC25FD181FD5DD1A4E1B1E075D1ABE610
:100A5000B1E088D1A8E1B1E08BD184E096D14FD14B
:100A6000AAE1B1E069D1A5E5B1E05CD10E94060C34
:100A700082D1EDE6F1E06FD10050104019F4EAE7C1
:100A8000F1E04BD10E94060C8091670180931E011A
:100A900095E18823A9F28695F0F791F675D029D1D2
:100AA000AFE1B1E049D100900A0100FA809109015B
:100AB000882379F4E89486E00F5F164F2040304099
:100AC00010F068948BE880930901992790F990932E
:100AD0000A013EF4A6E8B1E01BD16BD0A4E1B1E07D
:100AE0002BD182E080932301A4E1B1E011D1ABE2EC
:100AF000B1E022D1A1E3B1E01FD1B6C19FD3D8F0BC
:100B0000F8D2D1F48F9398E0A2D38F9120F492344D
:100B100081F498E012C0FA93EA93908D95FD07C096
:100B200059D18F9398940E94140B8F9108F09BC118
:100B3000229688270894089593C18F93B1D38F91FB
:100B400008F092C18827089567D340F0FA93EA939A
:100B500081E096D1B5D408F086C18CC10895802F6C
:100B6000C8D090911A01891B982F8395892790915D
:100B70001E01892311F488940895C5D005D02ED084
:100B800008F4089516D0F7CFEAE1F1E0D0D00E9442
:100B9000060C72F080911E0180FD06C036952795E7
:100BA000179507958695F8CF0E5F1F4F2F4F3F4F34
:100BB000089580911E01025010402040304080FD79
:100BC00006C0000F111F221F331F8695F8CFEAE1E0
:100BD000F1E0ADD00C94010C09D1D6DFABE0B1E06F
:100BE000A1D000900A0100FE04C0000F111F221FB7
:100BF000331F0F93012F122F232F33270E94010C35
:100C000065D18F91E8F000900A0100FA9927880FCA
:100C1000991FE80FF91F222733270191119136F40C
:100C2000219131913F7032976FEF7FE0329748EF1B
:100C30005FEF0417150716F42607370710F091E247
:100C40000BC112C151D002E0A02E442755276627C0
:100C5000772704C0A3E2B1E05BD0AA243F932F938F
:100C60001F930F937F936F935F934F93AF92B6DF72
:100C7000AF904F915F916F917F910F911F912F9145
:100C80003F91AFE1B1E0CD90DD90ED90FD9010F49B
:100C9000913249F5C016D106E206F30618F19927FC
:100CA0008191982B8191982B2EF48191982B819191
:100CB0008F70982B31F4A1FE0EC04F5F5F4F6F4FC6
:100CC0007F4F802F912F15D09127969516F480276E
:100CD000880F00F7C3CF32970EF43297A3E2B1E04A
:100CE0002BD0C2C092E2B8C0002711272227332799
:100CF00008950F5F1F4F2F4F3F4F089555276627C9
:100D000077270C94010C015010402040304008958A
:100D10000D911D912D913D91089501911191219178
:100D2000319108954D915D916D917D91089541911D
:100D300051916191719108950D931D932D933D9360
:100D40000895019311932193319308954193519301
:100D5000619371930895222733270191119108958A
:100D6000662777274D915D9108954191519108959E
:100D70004D935D930895402F512F622F732F089547
:100D800000501040204030400895569547958A9570
:100D9000E1F70895440F551F8A95E1F7089584E01F
:100DA0009F9391919D938A95E1F79F910895E88192
:100DB000F9810895A881B98118960895E881F9818B
:100DC0003C960895E881F9813896BBCFE881F98196
:100DD0003896A3CFF3DFA1CFF1DFA9CFA881B981E6
:100DE0001C960895E881F98174960895FBDF95CFEC
:100DF000E881F981808D0895E881F98170960895E0
:100E0000FBDF8BCFF9DF93CFF7DF9BCF00900A0199
:100E100000FA8FEF819381931EF481938FE0819389
:100E200040C000900A0100FA0193119316F4219337
:100E3000319337C0E881F98179960895D3DF81CF66
:100E4000A881B981549608950F900F900F900F903C
:100E50000F900F900895229608949093080108959A
:100E6000882799E4F9CF2296889490E0F6CF2296CD
:100E70008894089522960894089580EA01C084E831
:100E8000E881F9819F93908D892B808F9F910895A0
:100E9000E881F9819F93908D80958923808F9F9120
:100EA00008958091590188608093590108950E94A6
:100EB000470408F0D9CFD0CF0E945C0408F0D4CF0B
:100EC000CBCFA5E5B1E0EAE5F1E0F1CF80E1A5E522
:100ED000B1E006C080E0A5E5B1E002C0B1DF80E886
:100EE00021DF0E940B0C31F4E8941196EA2FFB2FBE
:100EF0001597BECF9D91EA2FFB2F792F777E872BF9
:100F00008E93149793FF18C00F931F932F933F93C3
:100F10009F93AF93BF93D0DFBF91AF919F91A8F004
:100F200094FF06C0AF93BF9333D3BF91AF9168F0E6
:100F30003F912F911F910F91FFDED7DFEF93FF932A
:100F4000B6DFFF91EF916894089580CFD2D009F079
:100F500088CFFA93EA93A5D008F48CCF83858F309D
:100F600099F0827C89F480818E3271F0853E61F047
:100F70008030D1F0A881B9819C919F3311F09813F2
:100F800003C07BE0A9D0A1F0B09681E0480F25F71F
:100F90008827581F5F934F930FD008F09BDF4F9126
:100FA0005F91D0F6903C08F492E4E991F99154CF26
:100FB000A3E5B1E0DDDE57CF00900A0100FC19C0C7
:100FC000ABE2B1E0A5DEA4E1B1E05F934F93AADE0E
:100FD0000E940B0C4F915F9161F4A8E1B1E06D911B
:100FE0007D914617570710F091E336CF0FD081DE81
:100FF0003BCF0CD03F932F931F930F93B0DD08F09E
:1010000025CF0F911F912F913F910895A5E5B1E054
:101010007FCE4FD008F43CC08081853E81F1803086
:1010200071F1B09681E0480FBDF78827581F5F9394
:101030004F93C2DF08F04EDF4F915F9168F7913216
:1010400039F55F934F93A0DD3F932F931F930F9339
:1010500001DEF8F0DBDE8FDE0F911F912F913F91C3
:101060007F936F935F934F93B9DD0F911F912F91F2
:101070003F9180F4913281F4D4DE48D2DDCFA3E5F4
:10108000B1E076DE45DEAFE2B1E072DE55DEECCEF9
:10109000E3CEDACE93E2E0DEDBCEA881B981129610
:1010A0000AC044275527ABE2B1E006C0A1E4B1E095
:1010B00002C0AFE2B1E056DE2BDE5A934A930ADF5C
:1010C00050F048814F70552785E064DEE40FF51F2E
:1010D00049915991C9CECECEFF93EF9381919D91C5
:1010E0009F3311F0891711F47A95C1F7EF91FF91B1
:1010F0000895E7E4F1E08F93E89499277BE0AEF060
:101100008D918A3219F48FE368940FC08E3239F4CE
:10111000733011F4E894F3CF80E2689406C0803015
:1011200011F480E20CC00E94FB0B81938F3309F411
:101130009395743009F4E8947A9509F704C080E235
:1011400081937A95E9F780E081933C9799238F9179
:101150000895928D9D93938D9D9300900A0100FEBA
:1011600005C094899D9395899D93089599279D9392
:101170009D9308957C9613DEB0970895882311F40B
:101180009AE46ACE31E0EAE5F3E0E8942081222394
:1011900029F4D6F0EE2EFF2E689416C0281771F1B0
:1011A000EF93FF938F9380F98F9386E03296A3E5B8
:1011B000B1E0EED28F9180FB8F91FF91EF9121F4FE
:1011C0001181192310FF1CC03A9519F0E65EFD4FFE
:1011D000DDCFC6F4EE2DFF2D18D080839183EF93E1
:1011E000FF938F9386E03296AE2FBF2FE3E5F1E0B9
:1011F00086E0D6DD8F91FF91EF9136CE95E42CCE2F
:1012000096E42ACE94E428CED2DD09E100240192AE
:101210000A95E9F779970895882369F071E0EAE57E
:10122000F3E09081981749F07A9519F0E65EFD4F4A
:10123000F8CF93E411CE9AE40FCE089580E8ECDF66
:1012400028F08395E1F791E4882706CE0DCE8F93A1
:101250009F937FDE7F918F91E8F0972F63856927B9
:1012600060FF03C0692760FD18C0FF93EF9386DF1E
:10127000FA93EA93EF91FF9168F0B0DD7BDF9ADD9E
:1012800068DFA4DD7DDD39F094DC28DE40F08AD013
:10129000AFDDEDCD0895F1DDFBCF98E4DDCDEACDF6
:1012A000FF93EF938F939F9311C0FF93EF938F93CF
:1012B0009F9339D058F4923451F508C0FF93EF93BF
:1012C0008F939F9346DE08F5923409F5A2DE00F174
:1012D00021D09F918F91FF93EF9350DFAF91BF91FA
:1012E000C0F0FA93EA93EF91FF919F938BE058DD62
:1012F0009F91917090629D9312962AD2149628D253
:10130000D0DDBBDDE991F991AFCD92E3A5DD089485
:101310009DCD9ECD85EE819388279FE181939A95FF
:10132000E9F7B097089509F09BCD13DE70F183853E
:101330008F7D11F093E390CDFF93EF9356D0EF9113
:10134000FF9118F1FF93EF9321D0EF91FF9185EE7C
:101350008083A7DD22273327028D138D00900A0199
:1013600000FE02C0248935890BDD69F015D036DC1A
:1013700080E08193819316F48193819392DDB0F79D
:10138000913211F4EAC0FAC008940895E3E5F1E05F
:10139000AFE2B1E086E0FAC1E0E1FF27A3E2B1E00D
:1013A00084E0F4C117DD2EDD0E940B0CC2F0C9F001
:1013B000AADC732761F4622751F45127569539F45A
:1013C00009DD20DD0E94060C84E05ADD4DCD00E0F1
:1013D00012E086E05DDD48CD84E052DD45CD91E64A
:1013E00001C091E086E04CDD37CD71E0EAE5F3E045
:1013F0008081882351F0FF93EF933296A3E5B1E00B
:1014000086E0C6D1EF91FF9129F07A9529F0E65E4A
:10141000FD4FEECF97E420CD27CDE8DCA0DB28F010
:10142000E7DC81FF5BCD0ADD8FC09132F9F412DC7D
:10143000E8F08FEF8193819300900A0100FE03C0D2
:1014400081938FE081932DDD0F931F932F933F9313
:10145000C3DB3F912F911F910F9130F4913221F412
:1014600003DDDFDCA6DBDCCF93E2F6CC0895F2DB14
:1014700030F18FEF8193819300900A0100FE03C049
:1014800081938FE081930DDD3F932F931F930F93F3
:1014900099DC03DE0F911F912F913F9180F0028F15
:1014A000138F00900A0100FE02C0248B358BF9DCFB
:1014B00080DBC4DC19DCA8DC80E2EADC88940895D7
:1014C00097DC83FF09C08EDCAE2FBF2F349680815E
:1014D000877F8193F1DCC0F08BDC86FF16C087FF2D
:1014E00002C080FF12C0D9DD78F0AE2FBF2F1B964F
:1014F0008C9180628C93519681E4CADC6BDC1CDC9D
:101500001A9726D1CEDC3AC00895AECC52DB80913A
:101510001E018F93DFDC18F018D0C3DC88948F9104
:1015200090F08A9529F0E5E5F1E0F7DBE2DBF1CF19
:1015300040911E014A9531F0E5E5F1E0EEDB041B38
:10154000E3DBC8CC91CC089575DC772792E080E08E
:1015500071930197E9F7F25087CC80E1A5E5B1E0FE
:10156000E9E5F1E0908193FF08958193BF93AF93F4
:10157000A3DCAF91BF9108F408950AC080E0A5E50F
:10158000B1E0E9E5F1E0908193FF0895819394CC77
:10159000EFE0F1E0819181FF0895C9DBB9DBEA2F2B
:1015A000FB2F31960E94010CA7E2B1E0C5DB149736
:1015B00083CCE881F98191819A7279F1E881F9818E
:1015C0008F93908D95FF06C052DF48F1BDDFE88113
:1015D000F981908D7096A1DBF12EE02E8ADB349795
:1015E000B0DBE881F9813C96A2DB40175107620726
:1015F000730718F43497A5DB92641F259860E8817F
:10160000F981789691939F2D9170EE0DF91F8F912E
:101610008193169531F054DF00CF92E61DCC8F9167
:101620000895889408956FDB332312F493E614CC65
:1016300019F4DEDB85FD18CCCFDB0E940B0CC1F169
:10164000A8F53F932F931F930F935CD05C2D6D2DC6
:101650007E2D4F93D5DB56D0C9DB7F936F935F937D
:1016600093DA5F916F917F915C156D057E0528F08F
:1016700089F05C196D097E0901C0A8DB51506040FA
:10168000704040F07F936F935F93A8DA5F916F9102
:101690007F91A0F78EDA4F9131DB20DCC8F00F91FB
:1016A0001F912F913F91B0DB7DDEDECB91E6D4CB55
:1016B000002339F6812F817021F625DBB5DF40F05C
:1016C0009FDB17DBA1DBA9DE20F4913011F0089439
:1016D00008958EDB81FD38CFC7CB8DE06ADF10F037
:1016E0008AE067CF089582E264CF0E94F70B41F051
:1016F000802DFF93EF935DDFEF91FF9110F0F5CF19
:101700008894089580911E01369527951795412F4D
:1017100090E0869530F03695279517950894991F97
:10172000F8CFC12ED22EE32E49230895E881F98106
:10173000808D50DB67DB3BDB0E94060C28F021F03C
:101740008D7F808F889408958660808F0894089597
:1017500081E0AA24BB24C82ED82EE82EF82ECC0C6B
:10176000CC0CCC0C8827B6948795B69487958A299B
:10177000B6948795BC288D93BD9284E18F0DE29439
:10178000EE0C881FED28ED928D930895689401C0AA
:10179000E894FA93EA93BA93AA93082E8817CFB6DF
:1017A000A190BD90CFBEAB04CFB68A95C9F7CFBE8E
:1017B00046F438F4802DA881B981EA81FB81F0DA02
:1017C000CFBEA991B991E991F99108950191119133
:1017D00021913081089599275A924A92480E591EB4
:1017E00008950E94F70B0D920020D9F70895C8952F
:1017F000319600200895813618F08B3708F48F7DDC
:101800000895040F151F261F371F0895041B150B7D
:10181000260B370B08950417150726073707089579
:10182000000F111F221F331F08950095109520955A
:1018300030950F5F1F4F2F4F3F4F0895019110813B
:101840000FC00E94E60B0EC00E94E60B10C0019173
:10185000108117FF05C03FEF2FEF04C00081112753
:101860002227332737FF03C0E0DF8DE28D93CF922D
:10187000DF92EF92AA24BB24CC24DD24EE2440E2A4
:10188000EAE0FF2755E093E38081890F87FD9F7091
:1018900083FD907F891B81935A95A9F7C1DFAA1C0C
:1018A000BB1CCC1CDD1CEE1C4A9551F7E894EFE004
:1018B000FF2782910CD0EB30E0F71EF068948A2D60
:1018C0000AD088278D93EF90DF90CF900895982FBE
:1018D000829501D0892F8F70805D26F0803309F4C6
:1018E000089568948D93089568656C6C6F20776F88
:1018F000726C640070616765207063007061676579
:101900002070616765300000637A656B616D206EE1
:1019100061206C657761207374726F6E65006C6511
:1019200077613A20000070726177613A2000777029
:101930006973616E65206E722073746172746F7763
:101940006500777963686F647A65207A20637769C8
:101950006172746B6900706F6D6961722E74787456
:101960000000546F204A61222022636F732074614B
:101970006D2220224469736B66726565203D2022CA
:0A1980002022756F6C656C65000095
:00000001FF
