:100000000C9434000C94B1090C94570A1895000014
:10001000189500000C94FA08189500001895000037
:10002000189500001895000018950000189500001C
:10003000189500000C94BA0A189500001895000055
:1000400018950000189500001895000018950000FC
:1000500018950000189500001895000018950000EC
:1000600018950000189500008FEF8DBFC0E8E8E9F3
:100070004E2E88E08EBFD8E0F7E05F2EA89584B7BB
:10008000082E877F84BF88E1992780936000909332
:100090006000EEEFF7E0A0E0B1E088278D933197A4
:1000A000E9F787E68093C40080E08093C50088E18B
:1000B0008093C1006624209A289A209A289A71E099
:1000C0007DBD0E94310B81E090E00E94880B0E9470
:1000D000250CA0E0B1E09C933C9A449A3D98579A35
:1000E0005F9A209A219A569A389A399A3A9A289879
:1000F00029985E98409841984298529853988091D8
:100100006900836080936900809169008C608093AE
:1001100069005598549870916800746070936800F5
:10012000E89AE99A70E370936D0080E08093800014
:1001300083E0809381008FEF8093850086E0809339
:100140008400709175057F7B7093750570917505BE
:100150007F777093750584E680937C0584E68093B1
:100160007D0584E680937E057894E8E1F9E20E94BB
:10017000170B0E941E0B5F98E1E0F0E00E94280B35
:100180005F9AE1E0F0E00E94280B0E94020BABE7CF
:10019000B5E08C930E94720BAAE7B5E08C930091B6
:1001A0007B05003211F00C94EA00709175057062C5
:1001B000709375055F98E4E2F9E20E945A0B8FEFA5
:1001C0000E944A0B8FEF0E944A0B8FEF0E944A0B4E
:1001D0000C94030100917B050B3111F00C94030189
:1001E000709175057F7D709375055F9AECE2F9E279
:1001F0000E945A0B8FEF0E944A0B8FEF0E944A0B0E
:100200008FEF0E944A0B00917A05003211F00C9496
:1002100014015F9AE8E3F9E20E94170B0E941E0B9B
:100220000E9485010C9424018BE4482F00917A05EB
:10023000041711F00C942401ECE4F9E20E94170B6E
:100240000E941E0B0E94D806A9E2B0E08C9185FBAB
:10025000AFE8B5E08C9180F98C93A9E2B0E08C9185
:1002600084FBAFE8B5E08C9181F98C93A9E2B0E012
:100270008C9182FBAFE8B5E08C9182F98C93A9E276
:10028000B0E08C9183FBAFE8B5E08C9183F98C935F
:1002900085E5482F00917A05041711F00C9453015D
:1002A00080E180938E0540918E0500918F050417A3
:1002B00011F40C948101ECE5F9E20E945A0B8FEFE6
:1002C0000E944A0B8FEF0E944A0B8FEF0E944A0B4D
:1002D000ECE6F9E20E945A0BEFE8F5E0A0E8B7E09F
:1002E0000E9446140E94610B8FEF0E944A0B8FEF11
:1002F0000E944A0B8FEF0E944A0B80918F058093DA
:100300008E050C94C500F894FFCF0E94720BAAE7EB
:10031000B5E08C9300917C05043681E009F080E023
:100320008F9300917D05043681E009F080E09F9174
:10033000892B882311F40C9405020E94720BAAE702
:10034000B5E08C938CE4482F00917A05041711F0E6
:100350000C94B1010E94760BACE7B5E08C930C9441
:10036000BE0180E5482F00917A05041711F00C9426
:10037000BE010E94760BADE7B5E08C9300917C0541
:10038000043681E008F080E08F9300917D0504360B
:1003900081E008F080E09F9189238F9300917A0596
:1003A0000B3181E009F080E09F91892B882311F4C3
:1003B0000C949D0184E690E00E94880BE6E7F9E248
:1003C0000E945A0B8FEF0E944A0B8FEF0E944A0B3C
:1003D0008FEF0E944A0BE0E8F9E20E945A0B8FEF80
:1003E0000E944A0B8FEF0E944A0B8FEF0E944A0B2C
:1003F000EAE8F9E20E945A0B8FEF0E944A0B8FEF56
:100400000E944A0B8FEF0E944A0B83E5482F009110
:100410007A05041711F00C94B50600917C0504369A
:1004200081E009F080E08F9300917D05043681E042
:1004300009F080E09F91892B882311F40C94270206
:10044000709175057E7F709375050C94B50670915B
:100450008D05706870938D0580E090E0A8E7B5E0A9
:100460008D939C9380E080937F0580E0809380054E
:10047000709175057B7F70937505709175057D7F13
:1004800070937505709175057F7E709375057091F9
:100490007505777F7093750580E090E0A1E8B5E081
:1004A0008D939C9380E090E0A3E8B5E08D939C93BE
:1004B00080E090E0A5E8B5E08D939C9380E090E02B
:1004C000A7E8B5E08D939C9380E090E0ABE8B5E0C1
:1004D0008D939C9380E090E0A9E8B5E08D939C9388
:1004E000E4E9F9E20E945A0B8FEF0E944A0B8FEF6A
:1004F0000E944A0B8FEF0E944A0BEEE9F9E20E943C
:100500005A0B8FEF0E944A0B8FEF0E944A0B8FEF1E
:100510000E944A0BECEAF9E20E945A0B8FEF0E940C
:100520004A0B8FEF0E944A0B8FEF0E944A0BE6EBBB
:10053000F9E20E945A0B8FEF0E944A0B8FEF0E9444
:100540004A0B8FEF0E944A0BE0ECF9E20E945A0B33
:100550008FEF0E944A0B8FEF0E944A0B8FEF0E9491
:100560004A0BEEECF9E20E945A0B8FEF0E944A0B05
:100570008FEF0E944A0B8FEF0E944A0BE8EDF9E2E1
:100580000E945A0B8FEF0E944A0B8FEF0E944A0B7A
:100590008FEF0E944A0BE6EEF9E20E945A0B8FEFB2
:1005A0000E944A0B8FEF0E944A0B8FEF0E944A0B6A
:1005B000E0EFF9E20E945A0B8FEF0E944A0B8FEF97
:1005C0000E944A0B8FEF0E944A0BEAEFF9E20E9469
:1005D0005A0B8FEF0E944A0B8FEF0E944A0B8FEF4E
:1005E0000E944A0B8FEF8093850086E08093840001
:1005F00070916F00716070936F00E8E0FAE20E9402
:10060000170B0E941E0B289A299A0E94720BAAE7C8
:10061000B5E08C93A8E7B5E00D911C91013050E056
:10062000150781E008F480E08F93A8E7B5E00D910D
:100630001C910F395FE0150781E010F009F080E0B0
:100640009F918923882311F40C942A03289A299ACC
:100650000C94FF03003A5FE0150711F00C9435038A
:10066000289829985E9A0C94FF03043951E11507E4
:1006700011F00C943F035E98409A0C94FF030838E5
:1006800053E1150711F00C944B035E984098419A82
:10069000429A0C94FF03A8E7B5E00D911C9109382C
:1006A00053E1150781E008F480E08F93A8E7B5E0F7
:1006B0000D911C91083253E2150781E010F009F00A
:1006C00080E09F918923882311F40C947703009193
:1006D0007F05013011F00C946E03289A009180057B
:1006E000013011F00C947503299A0C94FF03093220
:1006F00053E2150711F00C948503289829985E9809
:100700004098419842980C94FF03A8E7B5E00D91FA
:100710001C91003E5EE2150781E008F480E08F93B3
:10072000A8E7B5E00D911C91073A51E6150781E065
:1007300010F009F080E09F918923882311F40C9434
:10074000F50300917C05003011F00C94B403A5E78B
:10075000B5E08C9183FB16F00C94B20383E4AAE716
:10076000B5E08C930C94F30300917D05003011F0FB
:100770000C94C703A5E7B5E08C9184FB16F00C94AC
:10078000C50383E4AAE7B5E08C930C94F3030091CE
:100790007D05003081E009F480E08F9300917C05B5
:1007A000003081E009F480E09F918923882311F4CF
:1007B0000C94F303A5E7B5E08C9183FB81E00EF088
:1007C00080E08F93A5E7B5E08C9184FB81E00EF08B
:1007D00080E09F918923882311F40C94F30383E430
:1007E000AAE7B5E08C930C94FF03083A51E615078D
:1007F00011F00C94FF0383E4AAE7B5E08C9383E443
:10080000482F00917A05041711F00C94050384E633
:1008100090E00E94880BECE1FAE20E94170BEEE2F6
:10082000FAE20E94170BEFE7F5E0A0E8B7E00E94BC
:1008300046140E940F0BE0E4FAE20E94170BE0E876
:10084000F5E0A0E8B7E00E9446140E940F0B0E945A
:100850001E0BE4E5FAE20E94170BE1E8F5E0A0E8E0
:10086000B7E00E9436140E940F0BECE5FAE20E94FA
:10087000170BE3E8F5E0A0E8B7E00E9436140E9409
:100880000F0B0E941E0BE6E6FAE20E94170BE5E84A
:10089000F5E0A0E8B7E00E9436140E940F0BE2E7F3
:1008A000FAE20E94170BE7E8F5E0A0E8B7E00E9443
:1008B00036140E940F0B0E941E0B84E690E00E94EB
:1008C000880B70916F007E7F70936F0070918D0523
:1008D0007F7770938D052898299800917F050030C7
:1008E00081E009F080E08F93A1E8B5E00D911C91C3
:1008F000083853E1150780E010F009F081E09F917E
:100900008923882311F40C94A604A1E8B5E00D9185
:100910001C9108581341A1E8B5E00D931C93E0E841
:10092000FAE20E945A0BE1E8F5E0A0E8B7E00E9485
:1009300036140E94610B8FEF0E944A0B8FEF0E94CA
:100940004A0B8FEF0E944A0B0C94C10480E090E0A8
:10095000A1E8B5E08D939C93E0E8FAE20E945A0B7F
:10096000E1E8F5E0A0E8B7E00E9436140E94610BD0
:100970008FEF0E944A0B8FEF0E944A0B8FEF0E946D
:100980004A0B00918005003081E009F080E08F93F0
:10099000A3E8B5E00D911C91083853E1150780E0FC
:1009A00010F009F081E09F918923882311F40C94C1
:1009B000FA04A3E8B5E00D911C9108581341A3E88F
:1009C000B5E00D931C93E8E8FAE20E945A0BE3E8C5
:1009D000F5E0A0E8B7E00E9436140E94610B8FEFAB
:1009E0000E944A0B8FEF0E944A0B8FEF0E944A0B26
:1009F0000C94150580E090E0A3E8B5E08D939C93FE
:100A0000E8E8FAE20E945A0BE3E8F5E0A0E8B7E074
:100A10000E9436140E94610B8FEF0E944A0B8FEFE9
:100A20000E944A0B8FEF0E944A0BA5E8B5E00D919A
:100A30001C91003050E0150711F00C94270580E060
:100A400090E0A9E8B5E08D939C930C944D05A5E842
:100A5000B5E00D911C9108581341A9E8B5E00D933C
:100A60001C9300917F05003011F00C944705A9E814
:100A7000B5E00D911C91A1E8B5E04D915C91041B8E
:100A8000150BA5E8B5E00D931C930C944D0580E083
:100A900090E0A5E8B5E08D939C93A7E8B5E00D91B3
:100AA0001C91003050E0150711F00C945F0580E0B8
:100AB00090E0ABE8B5E08D939C930C948505A7E896
:100AC000B5E00D911C9108581341ABE8B5E00D93CA
:100AD0001C9300918005003011F00C947F05ABE869
:100AE000B5E00D911C91A3E8B5E04D915C91041B1C
:100AF000150BA7E8B5E00D931C930C94850580E0D9
:100B000090E0A7E8B5E08D939C93E0E9FAE20E94BB
:100B10005A0BE5E8F5E0A0E8B7E00E9436140E9421
:100B2000610B8FEF0E944A0B8FEF0E944A0B8FEFF1
:100B30000E944A0BE8E9FAE20E945A0BE7E8F5E066
:100B4000A0E8B7E00E9436140E94610B8FEF0E946C
:100B50004A0B8FEF0E944A0B8FEF0E944A0BE0EA8C
:100B6000FAE20E945A0BE9E8F5E0A0E8B7E00E943B
:100B700036140E94610B8FEF0E944A0B8FEF0E9488
:100B80004A0B8FEF0E944A0BE8EAFAE20E945A0BE6
:100B9000EBE8F5E0A0E8B7E00E9436140E94610B94
:100BA0008FEF0E944A0B8FEF0E944A0B8FEF0E943B
:100BB0004A0B289829980E94F607E0EBFAE20E9477
:100BC0005A0B8FEF0E944A0B8FEF0E944A0B8FEF58
:100BD0000E944A0BEEE9F9E20E945A0B8FEF0E9445
:100BE0004A0B8FEF0E944A0B8FEF0E944A0BEAEBF1
:100BF000FAE20E945A0B8FEF0E944A0B8FEF0E947D
:100C00004A0B8FEF0E944A0BE4ECFAE20E945A0B67
:100C10008FEF0E944A0B8FEF0E944A0B8FEF0E94CA
:100C20004A0BE2EDFAE20E945A0B8FEF0E944A0B48
:100C30008FEF0E944A0B8FEF0E944A0BECEDFAE215
:100C40000E945A0B8FEF0E944A0B8FEF0E944A0BB3
:100C50008FEF0E944A0BE6EEFAE20E945A0B8FEFEA
:100C60000E944A0B8FEF0E944A0B8FEF0E944A0BA3
:100C7000E0EFFAE20E945A0B8FEF0E944A0B8FEFCF
:100C80000E944A0B8FEF0E944A0BEAEFFAE20E94A1
:100C90005A0B8FEF0E944A0B8FEF0E944A0B8FEF87
:100CA0000E944A0BE4E0FBE20E945A0B8FEF0E9485
:100CB0004A0B8FEF0E944A0B8FEF0E944A0B80E095
:100CC00090E0A8E7B5E08D939C9384E680937C0543
:100CD00084E680937D05EEE0FBE20E945A0B82E2FF
:100CE0000E944A0BE6E1FBE20E945A0B82E20E945C
:100CF0004A0B8FEF0E944A0B8FEF0E944A0B8FEF37
:100D00000E944A0BEEE1FBE20E945A0B8FEF0E9419
:100D10004A0B8FEF0E944A0B8FEF0E944A0BECE2C6
:100D2000FBE20E945A0B82E20E944A0BE6E1FBE2E0
:100D30000E945A0B82E20E944A0B8FEF0E944A0BDC
:100D40008FEF0E944A0B8FEF0E944A0BE4E3FBE215
:100D50000E945A0B8FEF0E944A0B8FEF0E944A0BA2
:100D60008FEF0E944A0B2898299800917A050B3141
:100D700081E009F080E08F9300917B050B3181E0E9
:100D800009F080E09F91892B882311F40C94850150
:100D9000E2E4FBE20E94170B0E941E0B84E68093A4
:100DA0007C0584E680937D0580E180938E0508951F
:100DB000EEECF9E20E945A0B8FEF0E944A0B8FEF84
:100DC0000E944A0B8FEF0E944A0BE0ECF9E20E946E
:100DD0005A0B8FEF0E944A0B8FEF0E944A0B8FEF46
:100DE0000E944A0BE6EEF9E20E945A0B8FEF0E9436
:100DF0004A0B8FEF0E944A0B8FEF0E944A0BE8EDDF
:100E0000F9E20E945A0B8FEF0E944A0B8FEF0E946B
:100E10004A0B8FEF0E944A0B0E94720BAAE7B5E0C3
:100E20008C9300917E05043611F00C9467070E94A4
:100E3000720BAAE7B5E08C938BE6482F00917A05F8
:100E4000041711F00C9429070E94760BAEE7B5E069
:100E50008C9300917E05043681E008F080E08F934A
:100E600000917A050B3181E009F080E09F91892B98
:100E7000882311F40C94170784E690E00E94880BF5
:100E8000EAEFFAE20E945A0B8FEF0E944A0B8FEFB3
:100E90000E944A0B8FEF0E944A0BE4E0FBE20E94A3
:100EA0005A0B8FEF0E944A0B8FEF0E944A0B8FEF75
:100EB0000E944A0BE2EDFAE20E945A0B8FEF0E9469
:100EC0004A0B8FEF0E944A0B8FEF0E944A0B82E57C
:100ED000482F00917A05041711F00C94DD07EEEC11
:100EE000F9E20E945A0B8FEF0E944A0B8FEF0E948B
:100EF0004A0B8FEF0E944A0BE0ECF9E20E945A0B7A
:100F00008FEF0E944A0B8FEF0E944A0B8FEF0E94D7
:100F10004A0BECEDFAE20E945A0B8FEF0E944A0B4B
:100F20008FEF0E944A0B8FEF0E944A0BE6EEFAE227
:100F30000E945A0B8FEF0E944A0B8FEF0E944A0BC0
:100F40008FEF0E944A0B70918D057F7770938D050E
:100F50007091750571607093750580E090E0A8E769
:100F6000B5E08D939C93709175057B7F70937505AB
:100F700080E090E0A5E8B5E08D939C930E94720B11
:100F8000AAE7B5E08C9383E4482F00917A05041713
:100F900081E009F080E08F93A5E8B5E00D911C9108
:100FA000003050E0150780E010F009F081E09F91DB
:100FB000892B882311F40C94BE070E949E0800918F
:100FC0007A050B3181E009F080E08F9300917B0579
:100FD0000B3181E009F080E09F91892B882311F487
:100FE0000C940C0780E180938E05089581E00E94A7
:100FF00003140E94250CA0E0B1E09C930091000135
:10100000003011F00C94920881E00E94770CA881C6
:10101000B9819C93A881B9810C91003011F40C9492
:101020001808709175057068709375050C94900898
:101030005F98A0E8B7E0E6E5FBE20E94091483E0D0
:10104000A0E8B7E00E94270D83E00E94C01008F4DA
:101050002BC0FA93EA930E944913E4E6FBE20E9454
:101060004B130E9449130E944713ECE7F5E00E94DE
:1010700058130E944713EFE7F5E00E9458130E94AF
:101080004713E1E8F5E00E945D130E944713E5E88D
:10109000F5E00E945D130E944713E9E8F5E00E9425
:1010A0005D130E944113229683E00E94C01008F451
:1010B0002BC0FA93EA930E944913E6E6FBE20E94F2
:1010C0004B130E9449130E944713EDE7F5E00E947D
:1010D00058130E944713E0E8F5E00E9458130E945D
:1010E0004713E3E8F5E00E945D130E944713E7E829
:1010F000F5E00E945D130E944713EBE8F5E00E94C3
:101100005D130E944113229683E00E94540D83E0F8
:101110000E944B0D709175057F77709375055F9AEE
:101120000C9498085F9870917505706870937505B8
:1011300081E0481A80E0580A2296089581E00E94D2
:1011400003140E94250CA0E0B1E09C9300910001E3
:10115000003011F00C94EE0881E00E94770CA88119
:10116000B9819C93A881B9810C91003011F40C9441
:10117000C008709175057068709375050C94EC0843
:101180005F98A0E8B7E0E8E6FBE20E94091483E07C
:10119000A0E8B7E00E94270D83E00E94C01008F489
:1011A0000FC0FA93EA93ECE7F5E00E9458130E940F
:1011B0004713E5E8F5E00E945D130E944113229673
:1011C00083E00E94540D83E00E944B0D70917505E1
:1011D0007F77709375055F9A0C94F4085F9870910F
:1011E000750570687093750581E0481A80E0580AAB
:1011F000229608950F921F922F923F924F925F92E4
:101200007F92AF92BF920F931F932F933F934F9371
:101210005F936F937F938F939F93AF93BF93CF937E
:10122000DF93EF93FF938FB78F934D9B0C945409EB
:10123000289AA8E7B5E00D911C91083853E11507ED
:1012400010F00C942D0981E080937F057091750555
:101250007460709375050C945209A8E7B5E00D9180
:101260001C91083853E1150781E008F480E08F9362
:10127000A5E7B5E08C9182FB81E00EF480E09F91C0
:101280008923882311F40C945209A8E7B5E08D91C5
:101290009C91A1E8B5E08D939C9370917505746065
:1012A000709375050C94550928984C9B0C949409DF
:1012B000299AA8E7B5E00D911C91083853E115076C
:1012C00010F00C946D0981E0809380057091750594
:1012D0007260709375050C949209A8E7B5E00D91C2
:1012E0001C91083853E1150781E008F480E08F93E2
:1012F000A5E7B5E08C9181FB81E00EF480E09F9141
:101300008923882311F40C949209A8E7B5E08D9104
:101310009C91A3E8B5E08D939C93709175057260E4
:10132000709375050C94950929988F918FBFFF9143
:10133000EF91DF91CF91BF91AF919F918F917F916D
:101340006F915F914F913F912F911F910F91BF909E
:10135000AF907F905F904F903F902F901F900F9095
:1013600018950F921F922F923F924F925F927F9209
:10137000AF92BF920F931F932F933F934F935F931F
:101380006F937F938F939F93AF93BF93CF93DF938D
:10139000EF93FF938FB78F934A9B0C943B0AADE872
:1013A000B5E08C9187FB16F00C94FA09A5E7B5E03F
:1013B0008C9182FB81E00EF080E08F93A5E7B5E091
:1013C0008C9184FB81E00EF480E09F918923882337
:1013D00011F40C94F809A8E7B5E08D919C91A5E86B
:1013E000B5E08D939C937091750570617093750550
:1013F0000C943B0AA5E7B5E08C9180FB16F00C94A9
:101400003B0AA5E7B5E08C9182FB16F40C941A0A0E
:101410008FEF8093850086E08093840070916F0049
:10142000716070936F0070917505746070937505AD
:101430000C943B0AA8E7B5E00D911C91083853E1E4
:10144000150780E010F009F081E08F93A5E7B5E083
:101450008C9182FB81E00EF080E09F9189238823AC
:1014600011F40C943B0AA8E7B5E08D919C91A5E896
:10147000B5E08D939C938F918FBFFF91EF91DF919A
:10148000CF91BF91AF919F918F917F916F915F911C
:101490004F913F912F911F910F91BF90AF907F90EF
:1014A0005F904F903F902F901F900F9018950F9244
:1014B0001F922F923F924F925F927F92AF92BF9274
:1014C0000F931F932F933F934F935F936F937F934C
:1014D0008F939F93AF93BF93CF93DF93EF93FF933C
:1014E0008FB78F934B9B0C949E0AADE8B5E08C911F
:1014F00087FB16F00C949E0AA5E7B5E08C9181FB62
:1015000081E00EF080E08F93A5E7B5E08C9183FB3E
:1015100081E00EF480E09F918923882311F40C94DC
:101520009E0AA8E7B5E08D919C91A7E8B5E08D9360
:101530009C93709175057860709375058F918FBF3E
:10154000FF91EF91DF91CF91BF91AF919F918F91DB
:101550007F916F915F914F913F912F911F910F91CB
:10156000BF90AF907F905F904F903F902F901F90D3
:101570000F9018950F921F922F923F924F925F9269
:101580007F92AF92BF920F931F932F933F934F93EE
:101590005F936F937F938F939F93AF93BF93CF93FB
:1015A000DF93EF93FF938FB78F938FEF8093850037
:1015B00086E080938400A8E7B5E00E94FB0A8F9143
:1015C0008FBFFF91EF91DF91CF91BF91AF919F912D
:1015D0008F917F916F915F914F913F912F911F91CB
:1015E0000F91BF90AF907F905F904F903F902F9062
:1015F0001F900F901895ED91FC91EF5FFF4FFC93BA
:10160000EE93089588270090C00007FE089500C05B
:101610008091C00087FFFCCF8091C6000895A0E8AC
:10162000B7E08D91882311F00CD0FBCF08950E9474
:101630000F14802D11F005D0FACF08958DE001D060
:101640008AE00090C00005FEFCCF8093C60008959C
:1016500088EE93E05DD03197D9F708953197F1F78F
:101660000895259A24982C9A239A229A8CE58CBD69
:10167000089508950895689462F80895E89462F8CA
:1016800008958F939F938BEC90E00197F1F79F91D2
:101690008F91089580952AE090E0089410F4449882
:1016A00002C0449A0000EDDFECDF969587952A95FD
:1016B000A9F708950E940F14802D11F0EBDFFACFE7
:1016C0000895A0E8B7E08D91882311F0E3DFFBCF08
:1016D00008958F939F938BEC90E00197F1F79F9182
:1016E0008F910895359B05C088270895359B01C0CB
:1016F000FDCF29E03599FECFECDFEBDFEADF889400
:10170000359908942A9519F087959795F6CF0895FD
:10171000EF93FF93EE27E82BE92B31F0E0EAFFE0AF
:101720003197F1F70197D1F7FF91EF91089528983C
:1017300046D0032D44D0062F42D0052F40D0042F91
:101740003ED01F932F93112725E0E89435D00F3F0B
:1017500021F411502040D1F768942F911F9100235C
:101760000895289A1AE028D01A95E9F7289800E4F5
:1017700026D024D023D022D021D005E920D014E6D1
:10178000E0DF013021F01A95D9F791EE7BC075C0EA
:101790001AE0289801E413D011D010D00FD00ED049
:1017A000D0DF49F06AD082E390E00E94880B1A955E
:1017B00081F792EE67C061C00FEF01C000270EBD38
:1017C00000904D0007FEFCCF0EB5089544275D91B3
:1017D0006D913D90550F661F331C089545D0F6DF7F
:1017E00001E5A5DF11F093EE4DC0ABDF0E3F11F028
:1017F00095EE48C092E08827DFDF01930197E1F77B
:10180000DBDFDADF3AC030D0E1DF08E590DF11F04E
:1018100094EE38C0D1DF0EEFD2DF92E0882701913D
:10182000CEDF0197E1F7C8DFC7DFC6DF0F71009396
:10183000030111272FEF31D0BFDF002329F411500E
:101840002040C9F796EE1EC018C00E94310B0CD084
:1018500088DF08F408959CCF07D083CF05D081E0BE
:101860000EC002D098EE13C099278894909300017F
:1018700090930201909301010895289A9DDF992782
:101880008894089504D0289A97DF08940895909337
:101890000001009302010894089595E39A95F1F7E9
:1018A0000895E8E0F1E0ACE6B4E099279193119750
:1018B000E9F70895E894843059F0863049F08E3085
:1018C00039F068948B3021F08C3011F093E176C2BE
:1018D00000900A0100F800920A0188940895E8E552
:1018E000F3E0F3D145555A4A09F4089567C28A9343
:1018F000D8DF9BD2C0F091E1F2DFA8F08881882385
:10190000F9F0E8E1F3E08A9511F07096FCCF808160
:101910008F7721F434968081CDDF38F4888182304E
:1019200078F093E14BC2219649C280930901349625
:10193000A5E5B1E0E4D179D288F392E1D0DF98F364
:101940008991E5E6F1E0C1D14050524094E1F9F4CB
:10195000A8E6B1E0B7D1A5E5B1E08AD180D1ABE08E
:10196000B1E09AD1A0E7B1E0ABD14050504019F4BA
:10197000AEE7B1E087D1E0E1F1E098D180916A0172
:1019800080930F0196E1882311F0833008F016C28E
:1019900068D181FD66D1A4E1B1E07ED1ABE6B1E0D2
:1019A00091D1A8E1B1E094D184E09FD158D1AAE1CE
:1019B000B1E072D1A5E5B1E065D10E941E148BD1D2
:1019C000EDE6F1E078D10050104019F4EAE7F1E0DB
:1019D00054D10E941E148091670180931E0195E1ED
:1019E0008823A9F28695F0F791F67ED032D1AFE147
:1019F000B1E052D100900A0100FA809109018823D8
:101A000079F4E89486E00F5F164F2040304010F0E4
:101A100068948BE880930901992790F990930A01C3
:101A20003EF4A6E8B1E024D174D0A4E1B1E034D111
:101A300082E080932301A4E1B1E01AD1ABE2B1E0EE
:101A40002BD1A1E3B1E028D1C1C1ACD3D8F005D3EB
:101A5000D1F48F9398E0B8D38F9120F4923481F42D
:101A600098E012C0FA93EA93908D95FD07C064D177
:101A70008F9398940E94DB128F9108F0A6C1229652
:101A80008827089408959EC18F93C7D38F9108F03B
:101A90009DC18827089574D330F0FA93EA938BD3CD
:101AA00008F093C199C108956BD340F0FA93EA937B
:101AB00081E098D1C2D408F088C18EC10895802FEA
:101AC000C8D090911A01891B982F839589279091EE
:101AD0001E01892311F488940895C5D005D02ED015
:101AE00008F4089516D0F7CFEAE1F1E0D0D00E94D3
:101AF0001E1472F080911E0180FD06C03695279558
:101B0000179507958695F8CF0E5F1F4F2F4F3F4FC4
:101B1000089580911E01025010402040304080FD09
:101B200006C0000F111F221F331F8695F8CFEAE170
:101B3000F1E0ADD00C9419140BD1D6DFABE0B1E0DD
:101B4000A1D000900A0100FE04C0000F111F221F47
:101B5000331F0F93012F122F232F33270E941914A5
:101B600069D18F91E8F000900A0100FA9927880F57
:101B7000991FE80FF91F222733270191119136F49D
:101B8000219131913F7032976FEF7FE0329748EFAC
:101B90005FEF0417150716F42607370710F091E2D8
:101BA0000DC114C151D002E0A02E4427552766274D
:101BB000772704C0A3E2B1E05BD0AA243F932F9320
:101BC0001F930F937F936F935F934F93AF92B6DF03
:101BD000AF904F915F916F917F910F911F912F91D6
:101BE0003F91AFE1B1E0CD90DD90ED90FD9010F42C
:101BF000913249F5C016D106E206F30618F199278D
:101C00008191982B8191982B2EF48191982B819121
:101C10008F70982B31F4A1FE0EC04F5F5F4F6F4F56
:101C20007F4F802F912F15D09127969516F48027FE
:101C3000880F00F7C3CF32970EF43297A3E2B1E0DA
:101C40002BD0C4C092E2BAC0002711272227332725
:101C500008950F5F1F4F2F4F3F4F08955527662759
:101C600077270C94191401501040204030400895FB
:101C70000D911D912D913D91089501911191219109
:101C8000319108954D915D916D917D9108954191AE
:101C900051916191719108950D931D932D933D93F1
:101CA0000895019311932193319308954193519392
:101CB000619371930895222733270191119108951B
:101CC000662777274D915D9108954191519108952F
:101CD0004D935D930895402F512F622F732F0895D8
:101CE00000501040204030400895569547958A9501
:101CF000E1F70895440F551F8A95E1F7089584E0B0
:101D00009F9391919D938A95E1F79F910895E88122
:101D1000F9810895A881B98118960895E881F9811B
:101D20003C960895E881F9813896BBCFE881F98126
:101D30003896A3CFF3DFB5CFF1DF9FCFEFDFA7CF8B
:101D4000A881B9811C960895E881F9817496089557
:101D5000FBDF93CFE881F981808D0895E881F981D7
:101D600070960895FBDF89CFF9DF91CFF7DF99CF28
:101D700000900A0100FA8FEF819381931EF4819302
:101D80008FE0819342C000900A0100FA0193119301
:101D900016F42193319339C0E881F9817996089539
:101DA000D3DF7FCFA881B981549608950F900F900B
:101DB0000F900F900F900F90089522960894909393
:101DC00008010895882799E4F9CF2296889490E035
:101DD000F6CF22968894089522960894089580EA72
:101DE00001C084E8E881F9819F93908D892B808FD1
:101DF0009F910895E881F9819F93908D8095892323
:101E0000808F9F91089588E0EDCF8091590188607F
:101E10008093590108950E94EE0B08F0D7CFCECFE2
:101E20000E94030C08F0D2CFC9CFA5E5B1E0EAE5E6
:101E3000F1E0F1CF80E1A5E5B1E006C080E0A5E5E5
:101E4000B1E002C0AFDF80E81DDF0E94231431F44F
:101E5000E8941196EA2FFB2F1597BCCF9D91EA2F9E
:101E6000FB2F792F777E872B8E93149793FF18C0C3
:101E70000F931F932F933F939F93AF93BF93D0DF05
:101E8000BF91AF919F91A8F094FF06C0AF93BF930D
:101E90003CD3BF91AF9168F03F912F911F910F916B
:101EA000FBDED7DFEF93FF93B6DFFF91EF916894EE
:101EB00008957ECFD2D009F086CFFA93EA93A5D0C9
:101EC00008F48ACF83858F3099F0827C89F48081F1
:101ED0008E3271F0853E61F08030D1F0A881B981F9
:101EE0009C919F3311F0981303C07BE0A9D0A1F01F
:101EF000B09681E0480F25F78827581F5F934F93CE
:101F00000FD008F09BDF4F915F91D0F6903C08F422
:101F100092E4E991F99152CFA3E5B1E0D9DE55CF32
:101F200000900A0100FC19C0ABE2B1E0A1DEA4E11F
:101F3000B1E05F934F93A6DE0E9423144F915F910F
:101F400061F4A8E1B1E06D917D914617570710F05B
:101F500091E334CF0FD07DDE39CF0CD03F932F9358
:101F60001F930F93ACDD08F023CF0F911F912F919A
:101F70003F910895A5E5B1E07BCE4FD008F43CC079
:101F80008081853E81F1803071F1B09681E0480F0B
:101F9000BDF78827581F5F934F93C2DF08F04EDFCD
:101FA0004F915F9168F7913239F55F934F939CDDC4
:101FB0003F932F931F930F93FDDDF8F0D9DE8BDE57
:101FC0000F911F912F913F917F936F935F934F9349
:101FD000B5DD0F911F912F913F9180F4913281F4E3
:101FE000D2DE51D2DDCFA3E5B1E072DE41DEAFE259
:101FF000B1E06EDE51DEEACEE1CED8CE93E2DEDE97
:10200000D9CEA881B98112960AC044275527ABE2E0
:10201000B1E006C0A1E4B1E002C0AFE2B1E052DE3F
:1020200027DE5A934A930ADF50F048814F705527B4
:1020300085E060DEE40FF51F49915991C7CECCCE03
:10204000FF93EF9381919D919F3311F0891711F4C4
:102050007A95C1F7EF91FF910895E7E4F1E08F934E
:10206000E89499277BE0AEF08D918A3219F48FE3E2
:1020700068940FC08E3239F4733011F4E894F3CFC2
:1020800080E2689406C0803011F480E20CC00E94A7
:10209000131481938F3309F49395743009F4E89401
:1020A0007A9509F704C080E281937A95E9F780E098
:1020B00081933C9799238F910895928D9D93938D51
:1020C0009D9300900A0100FE05C094899D93958917
:1020D0009D93089599279D939D9308957C960FDE77
:1020E000B0970895882311F49AE468CE31E0EAE5C8
:1020F000F3E0E8942081222329F4D6F0EE2EFF2E7F
:10210000689416C0281771F1EF93FF938F9380F9AD
:102110008F9386E03296A3E5B1E052D38F9180FB96
:102120008F91FF91EF9121F41181192310FF1CC0B1
:102130003A9519F0E65EFD4FDDCFC6F4EE2DFF2D8A
:1021400018D080839183EF93FF938F9386E032962C
:10215000AE2FBF2FE3E5F1E086E0D2DD8F91FF9156
:10216000EF9134CE95E42ACE96E428CE94E426CEA0
:10217000CEDD09E1002401920A95E9F779970895E7
:10218000882369F071E0EAE5F3E09081981749F05F
:102190007A9519F0E65EFD4FF8CF93E40FCE9AE4FE
:1021A0000DCE089580E8ECDF28F08395E1F791E407
:1021B000882704CE0BCEABDD02C0E2DF20F081E049
:1021C00011DE3BD1D5CF08958F939F9376DE7F911B
:1021D0008F91E8F0972F6385692760FF03C0692717
:1021E00060FD18C0FF93EF937DDFFA93EA93EF91C0
:1021F000FF9168F0A5DD72DF8DDD5FDF97DD70DDBB
:1022000039F087DC1FDE40F08AD0A4DDE2CD0895EE
:10221000E6DDFBCF98E4D2CDDFCDFF93EF938F9334
:102220009F9311C0FF93EF938F939F9339D058F4EE
:10223000923451F508C0FF93EF938F939F933DDE47
:1022400008F5923409F599DE00F121D09F918F9124
:10225000FF93EF9347DFAF91BF91C0F0FA93EA93FA
:10226000EF91FF919F938BE04BDD9F919170906276
:102270009D93129685D2149683D2C7DDB0DDE99185
:10228000F991A4CD92E39ADD089492CD93CD85EE99
:10229000819388279FE181939A95E9F7B0970895F4
:1022A00009F090CD0ADE70F183858F7D11F093E304
:1022B00085CDFF93EF9356D0EF91FF9118F1FF93E7
:1022C000EF9321D0EF91FF9185EE80839EDD222751
:1022D0003327028D138D00900A0100FE02C024896D
:1022E0003589FEDC69F015D029DC80E0819381938B
:1022F00016F48193819389DDB0F7913211F4EAC02D
:10230000FAC008940895E3E5F1E0AFE2B1E086E0B9
:1023100055C2E0E1FF27A3E2B1E084E04FC20CDD4B
:1023200023DD0E942314C2F0C9F09DDC732761F401
:10233000622751F45127569539F4FEDC15DD0E94D1
:102340001E1484E04FDD42CD00E012E086E052DD55
:102350003DCD84E047DD3ACD91E601C091E086E0D5
:1023600041DD2CCD71E0EAE5F3E08081882351F076
:10237000FF93EF933296A3E5B1E086E021D2EF918F
:10238000FF9129F07A9529F0E65EFD4FEECF97E4B4
:1023900015CD1CCDDDDC93DB28F0DCDC81FF52CDDC
:1023A000FFDC8FC09132F9F405DCE8F08FEF819308
:1023B000819300900A0100FE03C081938FE0819316
:1023C00024DD0F931F932F933F93B6DB3F912F9103
:1023D0001F910F9130F4913221F4F8DCD4DC99DBB9
:1023E000DCCF93E2EBCC0895E5DB30F18FEF819306
:1023F000819300900A0100FE03C081938FE08193D6
:1024000004DD3F932F931F930F938CDCFADD0F9124
:102410001F912F913F9180F0028F138F00900A013E
:1024200000FE02C0248B358BF0DC73DBB9DC0CDCE6
:102430009DDC80E2DFDC889408958CDC83FF09C09A
:1024400083DCAE2FBF2F34968081877F8193E8DCB9
:10245000C0F080DC86FF16C087FF02C080FF12C07C
:10246000D0DD78F0AE2FBF2F1B968C9180628C93BD
:10247000519681E4BFDC60DC0FDC1A9781D1C5DCAA
:102480003AC00895A3CC45DB80911E018F93D6DC22
:1024900018F018D0BADC88948F9190F08A9529F0C2
:1024A000E5E5F1E0EADBD5DBF1CF40911E014A958D
:1024B00031F0E5E5F1E0E1DB041BD6DBBFCC86CCF7
:1024C00008956ADC772792E080E071930197E9F73D
:1024D000F2507CCC80E1A5E5B1E0E9E5F1E0908146
:1024E00093FF08958193BF93AF939ADCAF91BF910F
:1024F00008F408950AC080E0A5E5B1E0E9E5F1E05F
:10250000908193FF089581938BCCEFE0F1E081916E
:1025100081FF0895BCDBACDBEA2FFB2F31960E94D4
:102520001914A7E2B1E0B8DB14977ACCE881F981FD
:10253000092E9181902111F08894089592E63ECC65
:10254000E881F98191819A7279F1E881F9818F931B
:10255000908D95FF06C048DF48F1B3DFE881F9812F
:10256000908D70968ADBF12EE02E73DB349799DB29
:10257000E881F9813C968BDB4017510762077307AE
:1025800018F434978EDB92641F259860E881F981F6
:10259000789691939F2D9170EE0DF91F8F918193F5
:1025A000169531F04ADFF6CE92E608CC8F91089569
:1025B0008894089558DB332312F493E6FFCB19F483
:1025C000C9DB85FD03CCBADB0E942314C1F1A8F559
:1025D0003F932F931F930F9378D05C2D6D2D7E2DFD
:1025E0004F93C0DB72D0B4DB7F936F935F937CDA41
:1025F0005F916F917F915C156D057E0528F089F0E4
:102600005C196D097E0901C091DB5150604070403A
:1026100040F07F936F935F9391DA5F916F917F9119
:10262000A0F777DA4F911ADB0DDCC8F00F911F91FC
:102630002F913F919BDB73DEC9CB91E6BFCB00238B
:1026400039F6812F817021F60EDBB5DF40F08ADB91
:1026500000DB8CDB9FDE20F4913011F008940895AC
:1026600079DB81FD2ECFB2CBBF93AF9344275527A3
:102670008D91882319F04F5F5F4FD1F7AF91BF91D4
:1026800038C08DE05DDF10F08AE05ACF08958BE30B
:1026900057CF82E255CF0E940F1441F0802DFF9357
:1026A000EF934EDFEF91FF9110F0F5CF88940895EE
:1026B000A0E8B7E00E94461405C0A0E8B7E00E9479
:1026C000361400C0A0E8B7E0CFCF80911E01369548
:1026D00027951795412F90E0869530F036952795F0
:1026E00017950894991FF8CFC12ED22EE32E4923B7
:1026F00008959AE21BDF40F128D041505040B8F0D5
:102700008D9195FD04C00F3F71F410FF0CC02EDBBE
:10271000BF93AF935F934F9318DF4F915F91AF914A
:10272000BF9190F0E9CF81930F5F1F4FE6CF6BDB36
:1027300005DB401751076207730718F4FBDA80E4E2
:1027400051DB14DB0BD042CB0895E1DA908D0ADB2C
:1027500023DB712F7170E00FF71F0895E881F98175
:10276000808DEADA01DBD3DA0E941E1428F021F012
:102770008D7F808F889408958660808F0894089557
:1027800081E0AA24BB24C82ED82EE82EF82ECC0C2B
:10279000CC0CCC0C8827B6948795B69487958A295B
:1027A000B6948795BC288D93BD9284E18F0DE294F9
:1027B000EE0C881FED28ED928D930895689401C06A
:1027C000E894FA93EA93BA93AA93082E8817CFB69F
:1027D000A190BD90CFBEAB04CFB68A95C9F7CFBE4E
:1027E00046F438F4802DA881B981EA81FB8188DA2A
:1027F000CFBEA991B991E991F991089501911191F3
:1028000021913081089599275A924A92480E591E73
:1028100008950E940F140D920020D9F70895C895CD
:10282000319600200895813618F08B3708F48F7D9B
:102830000895040F151F261F371F0895041B150B3D
:10284000260B370B08950417150726073707089539
:10285000000F111F221F331F08950095109520951A
:1028600030950F5F1F4F2F4F3F4F089501911081FB
:102870000FC00E94FE130EC00E94FE1310C00191F3
:10288000108117FF05C03FEF2FEF04C00081112713
:102890002227332737FF03C0E0DF8DE28D93CF92ED
:1028A000DF92EF92AA24BB24CC24DD24EE2440E264
:1028B000EAE0FF2755E093E38081890F87FD9F7051
:1028C00083FD907F891B81935A95A9F7C1DFAA1CCC
:1028D000BB1CCC1CDD1CEE1C4A9551F7E894EFE0C4
:1028E000FF2782910CD0EB30E0F71EF068948A2D20
:1028F0000AD088278D93EF90DF90CF900895982F7E
:10290000829501D0892F8F70805D26F0803309F485
:10291000089568948D93089568656C6C6F20776F47
:10292000726C640070616765207063007061676538
:1029300020706167653000007763686F647A652096
:10294000646F206377696172746B69007763686F85
:10295000647A6520646F204B4A5300006E302E76F7
:10296000616C3D6E302E76616C2B31007661312EBC
:1029700076616C3D000062332E70636F3D30000065
:1029800074302E70636F3D30000074312E70636FB1
:102990003D3000007473772062332C3000006233C6
:1029A0002E70636F3D3635353335000074737720F4
:1029B00062342C31000062342E70636F3D300000B1
:1029C00062312E70636F3D363535333500007473D8
:1029D000772062312C30000062322E70636F3D36FA
:1029E0003535333500007473772062322C300000A7
:1029F0007473772062302C30000062302E70636F69
:102A00003D3635353335000073656B77656E636A27
:102A1000612073746172746F776100007A616B6F0B
:102A20006E637A796C20777973636967000020465A
:102A3000616C6C73746172745F6C6566743A2000CB
:102A40002046616C6C73746172745F72696768743C
:102A50003A2000004C6577613A20000020507261F6
:102A600077613A2000004C6577615F6D6574613A6B
:102A700020002050726177615F6D6574613A2000BB
:102A80006E302E76616C3D006E312E76616C3D00AD
:102A90006E322E76616C3D006E332E76616C3D0099
:102AA0006E342E76616C3D006E352E76616C3D0085
:102AB0007473772062332C31000074737720623492
:102AC0002C30000062342E70636F3D36353533355F
:102AD000000062312E70636F3D3000007473772008
:102AE00062312C31000062322E70636F3D30000085
:102AF0007473772062322C31000074737720623057
:102B00002C31000062302E70636F3D300000743055
:102B10002E7478743D00777069737A2000007430E9
:102B20002E70636F3D3633383133000074312E74AC
:102B300078743D0074312E70636F3D363338313315
:102B40000000777963686F647A65207A206377691B
:102B50006172746B69006377696172746B612E7462
:102B6000787400004C0050004B4A532E7478740067
:00000001FF
